{
  "_format": "hh-sol-artifact-1",
  "contractName": "TradeRouter",
  "sourceName": "contracts/datax/core/TradeRouter.sol",
  "abi": [
    {
      "inputs": [
        {
          "internalType": "uint8",
          "name": "_version",
          "type": "uint8"
        },
        {
          "internalType": "address",
          "name": "_storage",
          "type": "address"
        },
        {
          "internalType": "address",
          "name": "_fees",
          "type": "address"
        },
        {
          "internalType": "address payable",
          "name": "_collector",
          "type": "address"
        }
      ],
      "stateMutability": "nonpayable",
      "type": "constructor"
    },
    {
      "anonymous": false,
      "inputs": [
        {
          "indexed": true,
          "internalType": "address",
          "name": "tokenOut",
          "type": "address"
        },
        {
          "indexed": false,
          "internalType": "address",
          "name": "from",
          "type": "address"
        },
        {
          "indexed": false,
          "internalType": "address",
          "name": "to",
          "type": "address"
        },
        {
          "indexed": false,
          "internalType": "uint256",
          "name": "amountOut",
          "type": "uint256"
        }
      ],
      "name": "TradedETHToDataToken",
      "type": "event"
    },
    {
      "anonymous": false,
      "inputs": [
        {
          "indexed": true,
          "internalType": "address",
          "name": "tokenOut",
          "type": "address"
        },
        {
          "indexed": true,
          "internalType": "address",
          "name": "tokenIn",
          "type": "address"
        },
        {
          "indexed": false,
          "internalType": "address",
          "name": "from",
          "type": "address"
        },
        {
          "indexed": false,
          "internalType": "address",
          "name": "to",
          "type": "address"
        },
        {
          "indexed": false,
          "internalType": "uint256",
          "name": "amountOut",
          "type": "uint256"
        }
      ],
      "name": "TradedTokenToDataToken",
      "type": "event"
    },
    {
      "inputs": [
        {
          "components": [
            {
              "internalType": "address[5]",
              "name": "meta",
              "type": "address[5]"
            },
            {
              "internalType": "uint256[3]",
              "name": "uints",
              "type": "uint256[3]"
            },
            {
              "internalType": "address[]",
              "name": "path",
              "type": "address[]"
            },
            {
              "internalType": "bool",
              "name": "isFRE",
              "type": "bool"
            },
            {
              "internalType": "bytes32",
              "name": "exchangeId",
              "type": "bytes32"
            }
          ],
          "internalType": "struct TradeRouter.TradeInfo",
          "name": "info",
          "type": "tuple"
        }
      ],
      "name": "calcDTInGivenTokenOut",
      "outputs": [
        {
          "internalType": "uint256",
          "name": "amountIn",
          "type": "uint256"
        }
      ],
      "stateMutability": "view",
      "type": "function"
    },
    {
      "inputs": [
        {
          "components": [
            {
              "internalType": "address[5]",
              "name": "meta",
              "type": "address[5]"
            },
            {
              "internalType": "uint256[3]",
              "name": "uints",
              "type": "uint256[3]"
            },
            {
              "internalType": "address[]",
              "name": "path",
              "type": "address[]"
            },
            {
              "internalType": "bool",
              "name": "isFRE",
              "type": "bool"
            },
            {
              "internalType": "bytes32",
              "name": "exchangeId",
              "type": "bytes32"
            }
          ],
          "internalType": "struct TradeRouter.TradeInfo",
          "name": "info",
          "type": "tuple"
        }
      ],
      "name": "calcDTOutGivenTokenIn",
      "outputs": [
        {
          "internalType": "uint256",
          "name": "amountOut",
          "type": "uint256"
        }
      ],
      "stateMutability": "view",
      "type": "function"
    },
    {
      "inputs": [
        {
          "components": [
            {
              "internalType": "address[5]",
              "name": "meta",
              "type": "address[5]"
            },
            {
              "internalType": "uint256[3]",
              "name": "uints",
              "type": "uint256[3]"
            },
            {
              "internalType": "address[]",
              "name": "path",
              "type": "address[]"
            },
            {
              "internalType": "bool",
              "name": "isFRE",
              "type": "bool"
            },
            {
              "internalType": "bytes32",
              "name": "exchangeId",
              "type": "bytes32"
            }
          ],
          "internalType": "struct TradeRouter.TradeInfo",
          "name": "info",
          "type": "tuple"
        }
      ],
      "name": "calcTokenInGivenDTOut",
      "outputs": [
        {
          "internalType": "uint256",
          "name": "amountIn",
          "type": "uint256"
        }
      ],
      "stateMutability": "view",
      "type": "function"
    },
    {
      "inputs": [
        {
          "components": [
            {
              "internalType": "address[5]",
              "name": "meta",
              "type": "address[5]"
            },
            {
              "internalType": "uint256[3]",
              "name": "uints",
              "type": "uint256[3]"
            },
            {
              "internalType": "address[]",
              "name": "path",
              "type": "address[]"
            },
            {
              "internalType": "bool",
              "name": "isFRE",
              "type": "bool"
            },
            {
              "internalType": "bytes32",
              "name": "exchangeId",
              "type": "bytes32"
            }
          ],
          "internalType": "struct TradeRouter.TradeInfo",
          "name": "info",
          "type": "tuple"
        }
      ],
      "name": "calcTokenOutGivenDTIn",
      "outputs": [
        {
          "internalType": "uint256",
          "name": "amountOut",
          "type": "uint256"
        }
      ],
      "stateMutability": "view",
      "type": "function"
    },
    {
      "inputs": [
        {
          "components": [
            {
              "internalType": "address[5]",
              "name": "meta",
              "type": "address[5]"
            },
            {
              "internalType": "uint256[3]",
              "name": "uints",
              "type": "uint256[3]"
            },
            {
              "internalType": "address[]",
              "name": "path",
              "type": "address[]"
            },
            {
              "internalType": "bool",
              "name": "isFRE",
              "type": "bool"
            },
            {
              "internalType": "bytes32",
              "name": "exchangeId",
              "type": "bytes32"
            }
          ],
          "internalType": "struct TradeRouter.TradeInfo",
          "name": "info",
          "type": "tuple"
        }
      ],
      "name": "swapETHToExactDatatoken",
      "outputs": [
        {
          "internalType": "uint256",
          "name": "dataTokenOut",
          "type": "uint256"
        }
      ],
      "stateMutability": "payable",
      "type": "function"
    },
    {
      "inputs": [],
      "name": "version",
      "outputs": [
        {
          "internalType": "uint8",
          "name": "",
          "type": "uint8"
        }
      ],
      "stateMutability": "view",
      "type": "function"
    },
    {
      "stateMutability": "payable",
      "type": "receive"
    }
  ],
  "bytecode": "0x60806040523480156200001157600080fd5b5060405162001ebc38038062001ebc8339810160408190526200003491620000aa565b6001600081905560038054600280546001600160a01b039788166001600160a01b03199182161790915594861660ff909716600160a01b0285166001600160a81b0319909116179590951790945583549216911617905562000117565b6001600160a01b0381168114620000a757600080fd5b50565b60008060008060808587031215620000c157600080fd5b845160ff81168114620000d357600080fd5b6020860151909450620000e68162000091565b6040860151909350620000f98162000091565b60608601519092506200010c8162000091565b939692955090935050565b611d9580620001276000396000f3fe6080604052600436106100595760003560e01c806354fd4d50146100655780637a9decc01461009d57806384b49223146100be57806399add7c6146100de578063cc65efe1146100fe578063db8b5c691461011e57600080fd5b3661006057005b600080fd5b34801561007157600080fd5b5060035461008690600160a01b900460ff1681565b60405160ff90911681526020015b60405180910390f35b6100b06100ab3660046118f6565b61013e565b604051908152602001610094565b3480156100ca57600080fd5b506100b06100d93660046118f6565b61111c565b3480156100ea57600080fd5b506100b06100f93660046118f6565b611390565b34801561010a57600080fd5b506100b06101193660046118f6565b611572565b34801561012a57600080fd5b506100b06101393660046118f6565b6117c8565b6000600260005414156101985760405162461bcd60e51b815260206004820152601f60248201527f5265656e7472616e637947756172643a207265656e7472616e742063616c6c0060448201526064015b60405180910390fd5b600260009081556101af6060840160408501611964565b6001600160a01b0316141561021c5760405162461bcd60e51b815260206004820152602d60248201527f5472616465526f757465723a2044657374696e6174696f6e206164647265737360448201526c081b9bdd081c1c9bdd9a591959609a1b606482015260840161018f565b600061022e60a0840160808501611964565b9050600061024061010085018561197f565b600161025061010088018861197f565b61025b9291506119e6565b81811061026a5761026a611932565b905060200201602081019061027f9190611964565b905061029361014085016101208601611a0e565b1561090b5760006102a76020860186611964565b604051636e8de4b560e11b8152610140870135600482015260a087013560248201526000604482018190529192506001600160a01b0383169063dd1bc96a90606401608060405180830381865afa158015610306573d6000803e3d6000fd5b505050506040513d601f19601f8201168201806040525081019061032a9190611a2b565b505060035460405163c915d01560e01b81529293506000926001600160a01b03909116915063c915d01590610383908590600401908152604060208201819052600490820152630535741560e41b606082015260800190565b602060405180830381865afa1580156103a0573d6000803e3d6000fd5b505050506040513d601f19601f820116820180604052508101906103c49190611a61565b60035460405163268ac1bb60e21b81526004810185905260c08a013560248201529192506000916001600160a01b0390911690639a2b06ec90604401602060405180830381865afa15801561041d573d6000803e3d6000fd5b505050506040513d601f19601f820116820180604052508101906104419190611a61565b90506001600160a01b038616636561fd4f348361045e8688611a7a565b6104689190611a7a565b6104766101008d018d61197f565b30336040518763ffffffff1660e01b8152600401610498959493929190611ad9565b60206040518083038185885af11580156104b6573d6000803e3d6000fd5b50505050506040513d601f19601f820116820180604052508101906104db9190611a61565b5060015460405163a9059cbb60e01b81526001600160a01b039182166004820152602481018490529086169063a9059cbb906044016020604051808303816000875af115801561052f573d6000803e3d6000fd5b505050506040513d601f19601f820116820180604052508101906105539190611b15565b50600061056660808a0160608b01611964565b6001600160a01b031614610606576001600160a01b03851663a9059cbb61059360808b0160608c01611964565b6040516001600160e01b031960e084901b1681526001600160a01b039091166004820152602481018490526044016020604051808303816000875af11580156105e0573d6000803e3d6000fd5b505050506040513d601f19601f820116820180604052508101906106049190611b15565b505b60405163095ea7b360e01b81526001600160a01b0385811660048301526024820185905286169063095ea7b3906044016020604051808303816000875af1158015610655573d6000803e3d6000fd5b505050506040513d601f19601f820116820180604052508101906106799190611b15565b6106dd5760405162461bcd60e51b815260206004820152602f60248201527f5472616465526f757465723a204661696c656420746f20617070726f7665204260448201526e617365746f6b656e206f6e2046524560881b606482015260840161018f565b6040516370a0823160e01b81523060048201526000906001600160a01b038716906370a0823190602401602060405180830381865afa158015610724573d6000803e3d6000fd5b505050506040513d601f19601f820116820180604052508101906107489190611a61565b6040516368c4b7e960e01b81526101408b0135600482015260a08b013560248201526044810186905260006064820181905260848201529091506001600160a01b038616906368c4b7e99060a401600060405180830381600087803b1580156107b057600080fd5b505af11580156107c4573d6000803e3d6000fd5b50506040516370a0823160e01b8152306004820152600092506001600160a01b03891691506370a0823190602401602060405180830381865afa15801561080f573d6000803e3d6000fd5b505050506040513d601f19601f820116820180604052508101906108339190611a61565b9050600061084b61084484846118e3565b87906118e3565b905080156108ff576001600160a01b03881663a9059cbb61087260608e0160408f01611964565b6040516001600160e01b031960e084901b1681526001600160a01b039091166004820152602481018490526044016020604051808303816000875af11580156108bf573d6000803e3d6000fd5b505050506040513d601f19601f820116820180604052508101906108e39190611b15565b6108ff5760405162461bcd60e51b815260040161018f90611b32565b50505050505050610fa5565b600061091a6020860186611964565b905060006001600160a01b03821663caa0114861093b61010089018961197f565b600161094b6101008c018c61197f565b6109569291506119e6565b81811061096557610965611932565b905060200201602081019061097a9190611964565b61098a60408a0160208b01611964565b6040516001600160e01b031960e085901b1681526109b592919060a08c013590600090600401611b76565b60a060405180830381865afa1580156109d2573d6000803e3d6000fd5b505050506040513d601f19601f820116820180604052508101906109f69190611b9f565b505060035460405163c915d01560e01b81529394506000936001600160a01b03909116925063c915d0159150610a50908590600401908152604060208201819052600490820152630535741560e41b606082015260800190565b602060405180830381865afa158015610a6d573d6000803e3d6000fd5b505050506040513d601f19601f82011682018060405250810190610a919190611a61565b60035460405163268ac1bb60e21b81526004810185905260c08a013560248201529192506000916001600160a01b0390911690639a2b06ec90604401602060405180830381865afa158015610aea573d6000803e3d6000fd5b505050506040513d601f19601f82011682018060405250810190610b0e9190611a61565b90506001600160a01b038616636561fd4f3483610b2b8688611a7a565b610b359190611a7a565b610b436101008d018d61197f565b30336040518763ffffffff1660e01b8152600401610b65959493929190611ad9565b60206040518083038185885af1158015610b83573d6000803e3d6000fd5b50505050506040513d601f19601f82011682018060405250810190610ba89190611a61565b5060015460405163a9059cbb60e01b81526001600160a01b039182166004820152602481018490529086169063a9059cbb906044016020604051808303816000875af1158015610bfc573d6000803e3d6000fd5b505050506040513d601f19601f82011682018060405250810190610c209190611b15565b506000610c3360808a0160608b01611964565b6001600160a01b031614610cd3576001600160a01b03851663a9059cbb610c6060808b0160608c01611964565b6040516001600160e01b031960e084901b1681526001600160a01b039091166004820152602481018490526044016020604051808303816000875af1158015610cad573d6000803e3d6000fd5b505050506040513d601f19601f82011682018060405250810190610cd19190611b15565b505b60405163095ea7b360e01b81526001600160a01b0385811660048301526024820185905286169063095ea7b3906044016020604051808303816000875af1158015610d22573d6000803e3d6000fd5b505050506040513d601f19601f82011682018060405250810190610d469190611b15565b610dab5760405162461bcd60e51b815260206004820152603060248201527f5472616465526f757465723a204661696c656420746f20617070726f7665204260448201526f185cd95d1bdad95b881bdb88141bdbdb60821b606482015260840161018f565b600060405180606001604052808a806101000190610dc9919061197f565b6001610dd96101008f018f61197f565b610de49291506119e6565b818110610df357610df3611932565b9050602002016020810190610e089190611964565b6001600160a01b03168152602090810190610e299060408d01908d01611964565b6001600160a01b039081168252600060209283018190526040805160808101825289815260a08f01359481019490945260001984820152606084018290525163c98a59cf60e01b815293945091929088169063c98a59cf90610e919086908690600401611bdf565b60408051808303816000875af1158015610eaf573d6000803e3d6000fd5b505050506040513d601f19601f82011682018060405250810190610ed39190611c44565b5090506000610ee287836118e3565b90508015610f9c576001600160a01b03891663a9059cbb8d6002602002016020810190610f0f9190611964565b6040516001600160e01b031960e084901b1681526001600160a01b039091166004820152602481018490526044016020604051808303816000875af1158015610f5c573d6000803e3d6000fd5b505050506040513d601f19601f82011682018060405250810190610f809190611b15565b610f9c5760405162461bcd60e51b815260040161018f90611b32565b50505050505050505b610fb56040850160208601611964565b6001600160a01b031663a9059cbb610fd36060870160408801611964565b60405160e083901b6001600160e01b03191681526001600160a01b0391909116600482015260a087013560248201526044016020604051808303816000875af1158015611024573d6000803e3d6000fd5b505050506040513d601f19601f820116820180604052508101906110489190611b15565b6110945760405162461bcd60e51b815260206004820152601960248201527f4572726f723a204454207472616e73666572206661696c656400000000000000604482015260640161018f565b6110a46040850160208601611964565b6001600160a01b03167f3bb3b269810ace6496ed55bdccba59f7d88f5e650d7cf87fba2f2dc94a55d5d7336110df6060880160408901611964565b604080516001600160a01b03938416815291909216602082015260a08801358183015290519081900360600190a2505060016000555060a0013590565b60008061113161014084016101208501611a0e565b156111d35760006111456020850185611964565b60405163c2c0d1ab60e01b8152610140860135600482015260e08601356024820152600060448201529091506001600160a01b0382169063c2c0d1ab90606401608060405180830381865afa1580156111a2573d6000803e3d6000fd5b505050506040513d601f19601f820116820180604052508101906111c69190611a2b565b509193506112c692505050565b60006111e26020850185611964565b90506001600160a01b03811663caa011486112036040870160208801611964565b61121161010088018861197f565b60016112216101008b018b61197f565b61122c9291506119e6565b81811061123b5761123b611932565b90506020020160208101906112509190611964565b60a088016002602002013560006040518563ffffffff1660e01b815260040161127c9493929190611b76565b60a060405180830381865afa158015611299573d6000803e3d6000fd5b505050506040513d601f19601f820116820180604052508101906112bd9190611b9f565b50929450505050505b60006112d860a0850160808601611964565b905060006001600160a01b03821663d06ca61f846112fa61010089018961197f565b6040518463ffffffff1660e01b815260040161131893929190611c68565b600060405180830381865afa158015611335573d6000803e3d6000fd5b505050506040513d6000823e601f3d908101601f1916820160405261135d9190810190611ca1565b9050806001825161136e91906119e6565b8151811061137e5761137e611932565b60200260200101519350505050919050565b6000806113a360a0840160808501611964565b905060006001600160a01b038216631f00ca7460a08601356113c961010088018861197f565b6040518463ffffffff1660e01b81526004016113e793929190611c68565b600060405180830381865afa158015611404573d6000803e3d6000fd5b505050506040513d6000823e601f3d908101601f1916820160405261142c9190810190611ca1565b905061144061014085016101208601611a0e565b1561145c5760006114546020860186611964565b90505061156b565b600061146b6020860186611964565b90506001600160a01b03811663caa0114861148c6040880160208901611964565b61149a61010089018961197f565b60016114aa6101008c018c61197f565b6114b59291506119e6565b8181106114c4576114c4611932565b90506020020160208101906114d99190611964565b85600187516114e891906119e6565b815181106114f8576114f8611932565b602002602001015160006040518563ffffffff1660e01b81526004016115219493929190611b76565b60a060405180830381865afa15801561153e573d6000803e3d6000fd5b505050506040513d601f19601f820116820180604052508101906115629190611b9f565b50929650505050505b5050919050565b60008061158761014084016101208501611a0e565b1561162957600061159b6020850185611964565b604051636e8de4b560e11b8152610140860135600482015260e08601356024820152600060448201529091506001600160a01b0382169063dd1bc96a90606401608060405180830381865afa1580156115f8573d6000803e3d6000fd5b505050506040513d601f19601f8201168201806040525081019061161c9190611a2b565b5091935061171c92505050565b60006116386020850185611964565b90506001600160a01b03811663caa0114861165761010087018761197f565b60016116676101008a018a61197f565b6116729291506119e6565b81811061168157611681611932565b90506020020160208101906116969190611964565b6116a66040880160208901611964565b60a088016002602002013560006040518563ffffffff1660e01b81526004016116d29493929190611b76565b60a060405180830381865afa1580156116ef573d6000803e3d6000fd5b505050506040513d601f19601f820116820180604052508101906117139190611b9f565b50929450505050505b600061172e60a0850160808601611964565b905060006001600160a01b038216631f00ca748461175061010089018961197f565b6040518463ffffffff1660e01b815260040161176e93929190611c68565b600060405180830381865afa15801561178b573d6000803e3d6000fd5b505050506040513d6000823e601f3d908101601f191682016040526117b39190810190611ca1565b90508060008151811061137e5761137e611932565b6000806117db60a0840160808501611964565b905060006001600160a01b03821663d06ca61f60e086013561180161010088018861197f565b6040518463ffffffff1660e01b815260040161181f93929190611c68565b600060405180830381865afa15801561183c573d6000803e3d6000fd5b505050506040513d6000823e601f3d908101601f191682016040526118649190810190611ca1565b905060006118756020860186611964565b90506001600160a01b038116632eebd6ae61189461010088018861197f565b60016118a46101008b018b61197f565b6118af9291506119e6565b8181106118be576118be611932565b90506020020160208101906118d39190611964565b6114d96040890160208a01611964565b60006118ef82846119e6565b9392505050565b60006020828403121561190857600080fd5b813567ffffffffffffffff81111561191f57600080fd5b820161016081850312156118ef57600080fd5b634e487b7160e01b600052603260045260246000fd5b80356001600160a01b038116811461195f57600080fd5b919050565b60006020828403121561197657600080fd5b6118ef82611948565b6000808335601e1984360301811261199657600080fd5b83018035915067ffffffffffffffff8211156119b157600080fd5b6020019150600581901b36038213156119c957600080fd5b9250929050565b634e487b7160e01b600052601160045260246000fd5b6000828210156119f8576119f86119d0565b500390565b8015158114611a0b57600080fd5b50565b600060208284031215611a2057600080fd5b81356118ef816119fd565b60008060008060808587031215611a4157600080fd5b505082516020840151604085015160609095015191969095509092509050565b600060208284031215611a7357600080fd5b5051919050565b60008219821115611a8d57611a8d6119d0565b500190565b8183526000602080850194508260005b85811015611ace576001600160a01b03611abb83611948565b1687529582019590820190600101611aa2565b509495945050505050565b858152608060208201526000611af3608083018688611a92565b6001600160a01b03948516604084015292909316606090910152949350505050565b600060208284031215611b2757600080fd5b81516118ef816119fd565b60208082526024908201527f5472616465526f757465723a2042617365746f6b656e20726566756e642066616040820152631a5b195960e21b606082015260800190565b6001600160a01b0394851681529290931660208301526040820152606081019190915260800190565b600080600080600060a08688031215611bb757600080fd5b5050835160208501516040860151606087015160809097015192989197509594509092509050565b60e08101818460005b6003811015611c105781516001600160a01b0316835260209283019290910190600101611be8565b505050606082018360005b6004811015611c3a578151835260209283019290910190600101611c1b565b5050509392505050565b60008060408385031215611c5757600080fd5b505080516020909101519092909150565b838152604060208201526000611c82604083018486611a92565b95945050505050565b634e487b7160e01b600052604160045260246000fd5b60006020808385031215611cb457600080fd5b825167ffffffffffffffff80821115611ccc57600080fd5b818501915085601f830112611ce057600080fd5b815181811115611cf257611cf2611c8b565b8060051b604051601f19603f83011681018181108582111715611d1757611d17611c8b565b604052918252848201925083810185019188831115611d3557600080fd5b938501935b82851015611d5357845184529385019392850192611d3a565b9897505050505050505056fea26469706673582212205fbf4a8e3d92746ed7e302e54c4ef9e2949ac5cf7884be28b72eb56f9f6f579164736f6c634300080c0033",
  "linkReferences": {},
  "deployedLinkReferences": {}
}