{
  "_format": "hh-sol-artifact-1",
  "contractName": "DataXOGNFT",
  "sourceName": "contracts/datax/nfts/DataXOGNFT.sol",
  "abi": [
    {
      "inputs": [
        {
          "internalType": "string",
          "name": "baseURI",
          "type": "string"
        }
      ],
      "stateMutability": "nonpayable",
      "type": "constructor"
    },
    {
      "anonymous": false,
      "inputs": [
        {
          "indexed": true,
          "internalType": "address",
          "name": "owner",
          "type": "address"
        },
        {
          "indexed": true,
          "internalType": "address",
          "name": "approved",
          "type": "address"
        },
        {
          "indexed": true,
          "internalType": "uint256",
          "name": "tokenId",
          "type": "uint256"
        }
      ],
      "name": "Approval",
      "type": "event"
    },
    {
      "anonymous": false,
      "inputs": [
        {
          "indexed": true,
          "internalType": "address",
          "name": "owner",
          "type": "address"
        },
        {
          "indexed": true,
          "internalType": "address",
          "name": "operator",
          "type": "address"
        },
        {
          "indexed": false,
          "internalType": "bool",
          "name": "approved",
          "type": "bool"
        }
      ],
      "name": "ApprovalForAll",
      "type": "event"
    },
    {
      "anonymous": false,
      "inputs": [
        {
          "indexed": true,
          "internalType": "uint256",
          "name": "id",
          "type": "uint256"
        },
        {
          "indexed": true,
          "internalType": "address",
          "name": "to",
          "type": "address"
        }
      ],
      "name": "NewMint",
      "type": "event"
    },
    {
      "anonymous": false,
      "inputs": [
        {
          "indexed": true,
          "internalType": "address",
          "name": "previousOwner",
          "type": "address"
        },
        {
          "indexed": true,
          "internalType": "address",
          "name": "newOwner",
          "type": "address"
        }
      ],
      "name": "OwnershipTransferred",
      "type": "event"
    },
    {
      "anonymous": false,
      "inputs": [
        {
          "indexed": true,
          "internalType": "address",
          "name": "from",
          "type": "address"
        },
        {
          "indexed": true,
          "internalType": "address",
          "name": "to",
          "type": "address"
        },
        {
          "indexed": true,
          "internalType": "uint256",
          "name": "tokenId",
          "type": "uint256"
        }
      ],
      "name": "Transfer",
      "type": "event"
    },
    {
      "inputs": [],
      "name": "MAX_BY_MINT",
      "outputs": [
        {
          "internalType": "uint256",
          "name": "",
          "type": "uint256"
        }
      ],
      "stateMutability": "view",
      "type": "function"
    },
    {
      "inputs": [],
      "name": "MAX_ELEMENTS",
      "outputs": [
        {
          "internalType": "uint256",
          "name": "",
          "type": "uint256"
        }
      ],
      "stateMutability": "view",
      "type": "function"
    },
    {
      "inputs": [],
      "name": "START_AT",
      "outputs": [
        {
          "internalType": "uint256",
          "name": "",
          "type": "uint256"
        }
      ],
      "stateMutability": "view",
      "type": "function"
    },
    {
      "inputs": [],
      "name": "adminAddress",
      "outputs": [
        {
          "internalType": "address",
          "name": "",
          "type": "address"
        }
      ],
      "stateMutability": "view",
      "type": "function"
    },
    {
      "inputs": [
        {
          "internalType": "address",
          "name": "to",
          "type": "address"
        },
        {
          "internalType": "uint256",
          "name": "tokenId",
          "type": "uint256"
        }
      ],
      "name": "approve",
      "outputs": [],
      "stateMutability": "nonpayable",
      "type": "function"
    },
    {
      "inputs": [
        {
          "internalType": "address",
          "name": "owner",
          "type": "address"
        }
      ],
      "name": "balanceOf",
      "outputs": [
        {
          "internalType": "uint256",
          "name": "",
          "type": "uint256"
        }
      ],
      "stateMutability": "view",
      "type": "function"
    },
    {
      "inputs": [],
      "name": "baseTokenURI",
      "outputs": [
        {
          "internalType": "string",
          "name": "",
          "type": "string"
        }
      ],
      "stateMutability": "view",
      "type": "function"
    },
    {
      "inputs": [
        {
          "internalType": "uint256",
          "name": "tokenId",
          "type": "uint256"
        }
      ],
      "name": "getApproved",
      "outputs": [
        {
          "internalType": "address",
          "name": "",
          "type": "address"
        }
      ],
      "stateMutability": "view",
      "type": "function"
    },
    {
      "inputs": [
        {
          "internalType": "address",
          "name": "owner",
          "type": "address"
        },
        {
          "internalType": "address",
          "name": "operator",
          "type": "address"
        }
      ],
      "name": "isApprovedForAll",
      "outputs": [
        {
          "internalType": "bool",
          "name": "",
          "type": "bool"
        }
      ],
      "stateMutability": "view",
      "type": "function"
    },
    {
      "inputs": [
        {
          "internalType": "address",
          "name": "_to",
          "type": "address"
        }
      ],
      "name": "mint",
      "outputs": [],
      "stateMutability": "nonpayable",
      "type": "function"
    },
    {
      "inputs": [],
      "name": "name",
      "outputs": [
        {
          "internalType": "string",
          "name": "",
          "type": "string"
        }
      ],
      "stateMutability": "view",
      "type": "function"
    },
    {
      "inputs": [],
      "name": "owner",
      "outputs": [
        {
          "internalType": "address",
          "name": "",
          "type": "address"
        }
      ],
      "stateMutability": "view",
      "type": "function"
    },
    {
      "inputs": [
        {
          "internalType": "uint256",
          "name": "tokenId",
          "type": "uint256"
        }
      ],
      "name": "ownerOf",
      "outputs": [
        {
          "internalType": "address",
          "name": "",
          "type": "address"
        }
      ],
      "stateMutability": "view",
      "type": "function"
    },
    {
      "inputs": [],
      "name": "renounceOwnership",
      "outputs": [],
      "stateMutability": "nonpayable",
      "type": "function"
    },
    {
      "inputs": [
        {
          "internalType": "address",
          "name": "from",
          "type": "address"
        },
        {
          "internalType": "address",
          "name": "to",
          "type": "address"
        },
        {
          "internalType": "uint256",
          "name": "tokenId",
          "type": "uint256"
        }
      ],
      "name": "safeTransferFrom",
      "outputs": [],
      "stateMutability": "nonpayable",
      "type": "function"
    },
    {
      "inputs": [
        {
          "internalType": "address",
          "name": "from",
          "type": "address"
        },
        {
          "internalType": "address",
          "name": "to",
          "type": "address"
        },
        {
          "internalType": "uint256",
          "name": "tokenId",
          "type": "uint256"
        },
        {
          "internalType": "bytes",
          "name": "_data",
          "type": "bytes"
        }
      ],
      "name": "safeTransferFrom",
      "outputs": [],
      "stateMutability": "nonpayable",
      "type": "function"
    },
    {
      "inputs": [
        {
          "internalType": "address",
          "name": "operator",
          "type": "address"
        },
        {
          "internalType": "bool",
          "name": "approved",
          "type": "bool"
        }
      ],
      "name": "setApprovalForAll",
      "outputs": [],
      "stateMutability": "nonpayable",
      "type": "function"
    },
    {
      "inputs": [
        {
          "internalType": "string",
          "name": "baseURI",
          "type": "string"
        }
      ],
      "name": "setBaseURI",
      "outputs": [],
      "stateMutability": "nonpayable",
      "type": "function"
    },
    {
      "inputs": [
        {
          "internalType": "bytes4",
          "name": "interfaceId",
          "type": "bytes4"
        }
      ],
      "name": "supportsInterface",
      "outputs": [
        {
          "internalType": "bool",
          "name": "",
          "type": "bool"
        }
      ],
      "stateMutability": "view",
      "type": "function"
    },
    {
      "inputs": [],
      "name": "symbol",
      "outputs": [
        {
          "internalType": "string",
          "name": "",
          "type": "string"
        }
      ],
      "stateMutability": "view",
      "type": "function"
    },
    {
      "inputs": [
        {
          "internalType": "uint256",
          "name": "tokenId",
          "type": "uint256"
        }
      ],
      "name": "tokenURI",
      "outputs": [
        {
          "internalType": "string",
          "name": "",
          "type": "string"
        }
      ],
      "stateMutability": "view",
      "type": "function"
    },
    {
      "inputs": [],
      "name": "totalMint",
      "outputs": [
        {
          "internalType": "uint256",
          "name": "",
          "type": "uint256"
        }
      ],
      "stateMutability": "view",
      "type": "function"
    },
    {
      "inputs": [
        {
          "internalType": "address",
          "name": "from",
          "type": "address"
        },
        {
          "internalType": "address",
          "name": "to",
          "type": "address"
        },
        {
          "internalType": "uint256",
          "name": "tokenId",
          "type": "uint256"
        }
      ],
      "name": "transferFrom",
      "outputs": [],
      "stateMutability": "nonpayable",
      "type": "function"
    },
    {
      "inputs": [
        {
          "internalType": "address",
          "name": "newOwner",
          "type": "address"
        }
      ],
      "name": "transferOwnership",
      "outputs": [],
      "stateMutability": "nonpayable",
      "type": "function"
    },
    {
      "inputs": [],
      "name": "withdrawETH",
      "outputs": [],
      "stateMutability": "payable",
      "type": "function"
    },
    {
      "inputs": [
        {
          "internalType": "address",
          "name": "tokenAddress",
          "type": "address"
        }
      ],
      "name": "withdrawToken",
      "outputs": [],
      "stateMutability": "nonpayable",
      "type": "function"
    },
    {
      "stateMutability": "payable",
      "type": "receive"
    }
  ],
  "bytecode": "0x60806040523480156200001157600080fd5b506040516200209538038062002095833981016040819052620000349162000252565b60408051808201825260088152674461746158204f4760c01b60208083019182528351808501909452600784526644415441584f4760c81b908401528151919291620000839160009162000196565b5080516200009990600190602084019062000196565b505050620000b6620000b0620000c860201b60201c565b620000cc565b620000c1816200011e565b506200036b565b3390565b600680546001600160a01b038381166001600160a01b0319831681179093556040519116919082907f8be0079c531659141344cd1fd0a4f28419497f9722a3daafe3b4186f6b6457e090600090a35050565b6006546001600160a01b031633146200017d5760405162461bcd60e51b815260206004820181905260248201527f4f776e61626c653a2063616c6c6572206973206e6f7420746865206f776e6572604482015260640160405180910390fd5b80516200019290600990602084019062000196565b5050565b828054620001a4906200032e565b90600052602060002090601f016020900481019282620001c8576000855562000213565b82601f10620001e357805160ff191683800117855562000213565b8280016001018555821562000213579182015b8281111562000213578251825591602001919060010190620001f6565b506200022192915062000225565b5090565b5b8082111562000221576000815560010162000226565b634e487b7160e01b600052604160045260246000fd5b600060208083850312156200026657600080fd5b82516001600160401b03808211156200027e57600080fd5b818501915085601f8301126200029357600080fd5b815181811115620002a857620002a86200023c565b604051601f8201601f19908116603f01168101908382118183101715620002d357620002d36200023c565b816040528281528886848701011115620002ec57600080fd5b600093505b82841015620003105784840186015181850187015292850192620002f1565b82841115620003225760008684830101525b98975050505050505050565b600181811c908216806200034357607f821691505b602082108114156200036557634e487b7160e01b600052602260045260246000fd5b50919050565b611d1a806200037b6000396000f3fe6080604052600436106101855760003560e01c806389476069116100d1578063bf7b766d1161008a578063e086e5ec11610064578063e086e5ec1461042d578063e985e9c514610435578063f2fde38b1461047e578063fc6f94681461049e57600080fd5b8063bf7b766d14610370578063c87b56dd146103f8578063d547cfb71461041857600080fd5b806389476069146103505780638ad5de28146103705780638da5cb5b1461038557806395d89b41146103a3578063a22cb465146103b8578063b88d4fde146103d857600080fd5b806342842e0e1161013e5780636352211e116101185780636352211e146102db5780636a627842146102fb57806370a082311461031b578063715018a61461033b57600080fd5b806342842e0e1461028657806355f804b3146102a657806359a7715a146102c657600080fd5b806301ffc9a71461019157806306fdde03146101c6578063081812fc146101e8578063095ea7b31461022057806323b872dd146102425780633502a7161461026257600080fd5b3661018c57005b600080fd5b34801561019d57600080fd5b506101b16101ac366004611757565b6104be565b60405190151581526020015b60405180910390f35b3480156101d257600080fd5b506101db610510565b6040516101bd91906117cc565b3480156101f457600080fd5b506102086102033660046117df565b6105a2565b6040516001600160a01b0390911681526020016101bd565b34801561022c57600080fd5b5061024061023b366004611814565b61063c565b005b34801561024e57600080fd5b5061024061025d36600461183e565b610752565b34801561026e57600080fd5b506102786101f481565b6040519081526020016101bd565b34801561029257600080fd5b506102406102a136600461183e565b610783565b3480156102b257600080fd5b506102406102c1366004611906565b61079e565b3480156102d257600080fd5b506102786107df565b3480156102e757600080fd5b506102086102f63660046117df565b6107ee565b34801561030757600080fd5b5061024061031636600461194f565b610865565b34801561032757600080fd5b5061027861033636600461194f565b6108e9565b34801561034757600080fd5b50610240610970565b34801561035c57600080fd5b5061024061036b36600461194f565b6109a6565b34801561037c57600080fd5b50610278600181565b34801561039157600080fd5b506006546001600160a01b0316610208565b3480156103af57600080fd5b506101db610b78565b3480156103c457600080fd5b506102406103d3366004611978565b610b87565b3480156103e457600080fd5b506102406103f33660046119af565b610b92565b34801561040457600080fd5b506101db6104133660046117df565b610bca565b34801561042457600080fd5b506101db610ca5565b610240610d33565b34801561044157600080fd5b506101b1610450366004611a2b565b6001600160a01b03918216600090815260056020908152604080832093909416825291909152205460ff1690565b34801561048a57600080fd5b5061024061049936600461194f565b610da9565b3480156104aa57600080fd5b50600854610208906001600160a01b031681565b60006001600160e01b031982166380ac58cd60e01b14806104ef57506001600160e01b03198216635b5e139f60e01b145b8061050a57506301ffc9a760e01b6001600160e01b03198316145b92915050565b60606000805461051f90611a5e565b80601f016020809104026020016040519081016040528092919081815260200182805461054b90611a5e565b80156105985780601f1061056d57610100808354040283529160200191610598565b820191906000526020600020905b81548152906001019060200180831161057b57829003601f168201915b5050505050905090565b6000818152600260205260408120546001600160a01b03166106205760405162461bcd60e51b815260206004820152602c60248201527f4552433732313a20617070726f76656420717565727920666f72206e6f6e657860448201526b34b9ba32b73a103a37b5b2b760a11b60648201526084015b60405180910390fd5b506000908152600460205260409020546001600160a01b031690565b6000610647826107ee565b9050806001600160a01b0316836001600160a01b031614156106b55760405162461bcd60e51b815260206004820152602160248201527f4552433732313a20617070726f76616c20746f2063757272656e74206f776e656044820152603960f91b6064820152608401610617565b336001600160a01b03821614806106d157506106d18133610450565b6107435760405162461bcd60e51b815260206004820152603860248201527f4552433732313a20617070726f76652063616c6c6572206973206e6f74206f7760448201527f6e6572206e6f7220617070726f76656420666f7220616c6c00000000000000006064820152608401610617565b61074d8383610e44565b505050565b61075c3382610eb2565b6107785760405162461bcd60e51b815260040161061790611a99565b61074d838383610fa9565b61074d83838360405180602001604052806000815250610b92565b6006546001600160a01b031633146107c85760405162461bcd60e51b815260040161061790611aea565b80516107db9060099060208401906116a8565b5050565b60006107e9611145565b905090565b6000818152600260205260408120546001600160a01b03168061050a5760405162461bcd60e51b815260206004820152602960248201527f4552433732313a206f776e657220717565727920666f72206e6f6e657869737460448201526832b73a103a37b5b2b760b91b6064820152608401610617565b6006546001600160a01b0316331461088f5760405162461bcd60e51b815260040161061790611aea565b6000610899611145565b90506101f48111156108e05760405162461bcd60e51b815260206004820152601060248201526f115c9c9bdc8e8813585e081b1a5b5a5d60821b6044820152606401610617565b6107db82611150565b60006001600160a01b0382166109545760405162461bcd60e51b815260206004820152602a60248201527f4552433732313a2062616c616e636520717565727920666f7220746865207a65604482015269726f206164647265737360b01b6064820152608401610617565b506001600160a01b031660009081526003602052604090205490565b6006546001600160a01b0316331461099a5760405162461bcd60e51b815260040161061790611aea565b6109a460006111ba565b565b6006546001600160a01b031633146109d05760405162461bcd60e51b815260040161061790611aea565b6001600160a01b038116610a345760405162461bcd60e51b815260206004820152602560248201527f4572726f723a20496e76616c696420746f6b656e20636f6e7472616374206164604482015264647265737360d81b6064820152608401610617565b6000610a486006546001600160a01b031690565b6040516370a0823160e01b81523060048201529091506001600160a01b0383169063a9059cbb90839083906370a0823190602401602060405180830381865afa158015610a99573d6000803e3d6000fd5b505050506040513d601f19601f82011682018060405250810190610abd9190611b1f565b6040516001600160e01b031960e085901b1681526001600160a01b03909216600483015260248201526044016020604051808303816000875af1158015610b08573d6000803e3d6000fd5b505050506040513d601f19601f82011682018060405250810190610b2c9190611b38565b6107db5760405162461bcd60e51b815260206004820181905260248201527f4572726f723a204661696c656420746f20776974686472617720746f6b656e736044820152606401610617565b60606001805461051f90611a5e565b6107db33838361120c565b610b9c3383610eb2565b610bb85760405162461bcd60e51b815260040161061790611a99565b610bc4848484846112db565b50505050565b6000818152600260205260409020546060906001600160a01b0316610c495760405162461bcd60e51b815260206004820152602f60248201527f4552433732314d657461646174613a2055524920717565727920666f72206e6f60448201526e3732bc34b9ba32b73a103a37b5b2b760891b6064820152608401610617565b6000610c5361130e565b90506000815111610c735760405180602001604052806000815250610c9e565b80610c7d8461131d565b604051602001610c8e929190611b55565b6040516020818303038152906040525b9392505050565b60098054610cb290611a5e565b80601f0160208091040260200160405190810160405280929190818152602001828054610cde90611a5e565b8015610d2b5780601f10610d0057610100808354040283529160200191610d2b565b820191906000526020600020905b815481529060010190602001808311610d0e57829003601f168201915b505050505081565b6006546001600160a01b03163314610d5d5760405162461bcd60e51b815260040161061790611aea565b6000610d716006546001600160a01b031690565b6040519091506001600160a01b038216904780156108fc02916000818181858888f193505050501580156107db573d6000803e3d6000fd5b6006546001600160a01b03163314610dd35760405162461bcd60e51b815260040161061790611aea565b6001600160a01b038116610e385760405162461bcd60e51b815260206004820152602660248201527f4f776e61626c653a206e6577206f776e657220697320746865207a65726f206160448201526564647265737360d01b6064820152608401610617565b610e41816111ba565b50565b600081815260046020526040902080546001600160a01b0319166001600160a01b0384169081179091558190610e79826107ee565b6001600160a01b03167f8c5be1e5ebec7d5bd14f71427d1e84f3dd0314c0f7b2291e5b200ac8c7c3b92560405160405180910390a45050565b6000818152600260205260408120546001600160a01b0316610f2b5760405162461bcd60e51b815260206004820152602c60248201527f4552433732313a206f70657261746f7220717565727920666f72206e6f6e657860448201526b34b9ba32b73a103a37b5b2b760a11b6064820152608401610617565b6000610f36836107ee565b9050806001600160a01b0316846001600160a01b03161480610f715750836001600160a01b0316610f66846105a2565b6001600160a01b0316145b80610fa157506001600160a01b0380821660009081526005602090815260408083209388168352929052205460ff165b949350505050565b826001600160a01b0316610fbc826107ee565b6001600160a01b0316146110205760405162461bcd60e51b815260206004820152602560248201527f4552433732313a207472616e736665722066726f6d20696e636f72726563742060448201526437bbb732b960d91b6064820152608401610617565b6001600160a01b0382166110825760405162461bcd60e51b8152602060048201526024808201527f4552433732313a207472616e7366657220746f20746865207a65726f206164646044820152637265737360e01b6064820152608401610617565b61108d600082610e44565b6001600160a01b03831660009081526003602052604081208054600192906110b6908490611b9a565b90915550506001600160a01b03821660009081526003602052604081208054600192906110e4908490611bb1565b909155505060008181526002602052604080822080546001600160a01b0319166001600160a01b0386811691821790925591518493918716917fddf252ad1be2c89b69c2b068fc378daa952ba7f163c4a11628f55a4df523b3ef91a4505050565b60006107e960075490565b6000600161115c611145565b6111669190611bb1565b9050611176600780546001019055565b611180828261141b565b6040516001600160a01b0383169082907f291d3f6c3ecab98acd02709c8abf1e57e33ba0c761ff7f68bcbe5af06b346fed90600090a35050565b600680546001600160a01b038381166001600160a01b0319831681179093556040519116919082907f8be0079c531659141344cd1fd0a4f28419497f9722a3daafe3b4186f6b6457e090600090a35050565b816001600160a01b0316836001600160a01b0316141561126e5760405162461bcd60e51b815260206004820152601960248201527f4552433732313a20617070726f766520746f2063616c6c6572000000000000006044820152606401610617565b6001600160a01b03838116600081815260056020908152604080832094871680845294825291829020805460ff191686151590811790915591519182527f17307eab39ab6107e8899845ad3d59bd9653f200f220920489ca2b5937696c31910160405180910390a3505050565b6112e6848484610fa9565b6112f284848484611435565b610bc45760405162461bcd60e51b815260040161061790611bc9565b60606009805461051f90611a5e565b6060816113415750506040805180820190915260018152600360fc1b602082015290565b8160005b811561136b578061135581611c1b565b91506113649050600a83611c4c565b9150611345565b60008167ffffffffffffffff8111156113865761138661187a565b6040519080825280601f01601f1916602001820160405280156113b0576020820181803683370190505b5090505b8415610fa1576113c5600183611b9a565b91506113d2600a86611c60565b6113dd906030611bb1565b60f81b8183815181106113f2576113f2611c74565b60200101906001600160f81b031916908160001a905350611414600a86611c4c565b94506113b4565b6107db828260405180602001604052806000815250611533565b60006001600160a01b0384163b1561152857604051630a85bd0160e11b81526001600160a01b0385169063150b7a0290611479903390899088908890600401611c8a565b6020604051808303816000875af19250505080156114b4575060408051601f3d908101601f191682019092526114b191810190611cc7565b60015b61150e573d8080156114e2576040519150601f19603f3d011682016040523d82523d6000602084013e6114e7565b606091505b5080516115065760405162461bcd60e51b815260040161061790611bc9565b805181602001fd5b6001600160e01b031916630a85bd0160e11b149050610fa1565b506001949350505050565b61153d8383611566565b61154a6000848484611435565b61074d5760405162461bcd60e51b815260040161061790611bc9565b6001600160a01b0382166115bc5760405162461bcd60e51b815260206004820181905260248201527f4552433732313a206d696e7420746f20746865207a65726f20616464726573736044820152606401610617565b6000818152600260205260409020546001600160a01b0316156116215760405162461bcd60e51b815260206004820152601c60248201527f4552433732313a20746f6b656e20616c7265616479206d696e746564000000006044820152606401610617565b6001600160a01b038216600090815260036020526040812080546001929061164a908490611bb1565b909155505060008181526002602052604080822080546001600160a01b0319166001600160a01b03861690811790915590518392907fddf252ad1be2c89b69c2b068fc378daa952ba7f163c4a11628f55a4df523b3ef908290a45050565b8280546116b490611a5e565b90600052602060002090601f0160209004810192826116d6576000855561171c565b82601f106116ef57805160ff191683800117855561171c565b8280016001018555821561171c579182015b8281111561171c578251825591602001919060010190611701565b5061172892915061172c565b5090565b5b80821115611728576000815560010161172d565b6001600160e01b031981168114610e4157600080fd5b60006020828403121561176957600080fd5b8135610c9e81611741565b60005b8381101561178f578181015183820152602001611777565b83811115610bc45750506000910152565b600081518084526117b8816020860160208601611774565b601f01601f19169290920160200192915050565b602081526000610c9e60208301846117a0565b6000602082840312156117f157600080fd5b5035919050565b80356001600160a01b038116811461180f57600080fd5b919050565b6000806040838503121561182757600080fd5b611830836117f8565b946020939093013593505050565b60008060006060848603121561185357600080fd5b61185c846117f8565b925061186a602085016117f8565b9150604084013590509250925092565b634e487b7160e01b600052604160045260246000fd5b600067ffffffffffffffff808411156118ab576118ab61187a565b604051601f8501601f19908116603f011681019082821181831017156118d3576118d361187a565b816040528093508581528686860111156118ec57600080fd5b858560208301376000602087830101525050509392505050565b60006020828403121561191857600080fd5b813567ffffffffffffffff81111561192f57600080fd5b8201601f8101841361194057600080fd5b610fa184823560208401611890565b60006020828403121561196157600080fd5b610c9e826117f8565b8015158114610e4157600080fd5b6000806040838503121561198b57600080fd5b611994836117f8565b915060208301356119a48161196a565b809150509250929050565b600080600080608085870312156119c557600080fd5b6119ce856117f8565b93506119dc602086016117f8565b925060408501359150606085013567ffffffffffffffff8111156119ff57600080fd5b8501601f81018713611a1057600080fd5b611a1f87823560208401611890565b91505092959194509250565b60008060408385031215611a3e57600080fd5b611a47836117f8565b9150611a55602084016117f8565b90509250929050565b600181811c90821680611a7257607f821691505b60208210811415611a9357634e487b7160e01b600052602260045260246000fd5b50919050565b60208082526031908201527f4552433732313a207472616e736665722063616c6c6572206973206e6f74206f6040820152701ddb995c881b9bdc88185c1c1c9bdd9959607a1b606082015260800190565b6020808252818101527f4f776e61626c653a2063616c6c6572206973206e6f7420746865206f776e6572604082015260600190565b600060208284031215611b3157600080fd5b5051919050565b600060208284031215611b4a57600080fd5b8151610c9e8161196a565b60008351611b67818460208801611774565b835190830190611b7b818360208801611774565b01949350505050565b634e487b7160e01b600052601160045260246000fd5b600082821015611bac57611bac611b84565b500390565b60008219821115611bc457611bc4611b84565b500190565b60208082526032908201527f4552433732313a207472616e7366657220746f206e6f6e20455243373231526560408201527131b2b4bb32b91034b6b83632b6b2b73a32b960711b606082015260800190565b6000600019821415611c2f57611c2f611b84565b5060010190565b634e487b7160e01b600052601260045260246000fd5b600082611c5b57611c5b611c36565b500490565b600082611c6f57611c6f611c36565b500690565b634e487b7160e01b600052603260045260246000fd5b6001600160a01b0385811682528416602082015260408101839052608060608201819052600090611cbd908301846117a0565b9695505050505050565b600060208284031215611cd957600080fd5b8151610c9e8161174156fea2646970667358221220617868b5e857bd343a3511c49973db689d2db847716e95804f1de3298476fe2364736f6c634300080c0033",
  "linkReferences": {},
  "deployedLinkReferences": {}
}