{
  "_format": "hh-sol-artifact-1",
  "contractName": "UniV2Adapter",
  "sourceName": "contracts/datax/adapters/UniV2Adapter.sol",
  "abi": [
    {
      "inputs": [
        {
          "internalType": "address",
          "name": "_routerAddress",
          "type": "address"
        },
        {
          "internalType": "uint256",
          "name": "_currentVersion",
          "type": "uint256"
        }
      ],
      "stateMutability": "nonpayable",
      "type": "constructor"
    },
    {
      "anonymous": false,
      "inputs": [
        {
          "indexed": false,
          "internalType": "address[]",
          "name": "path",
          "type": "address[]"
        },
        {
          "indexed": false,
          "internalType": "uint256",
          "name": "amountOut",
          "type": "uint256"
        }
      ],
      "name": "Swapped",
      "type": "event"
    },
    {
      "inputs": [],
      "name": "currentVersion",
      "outputs": [
        {
          "internalType": "uint256",
          "name": "",
          "type": "uint256"
        }
      ],
      "stateMutability": "view",
      "type": "function"
    },
    {
      "inputs": [
        {
          "internalType": "uint256",
          "name": "amountOut",
          "type": "uint256"
        },
        {
          "internalType": "address[]",
          "name": "path",
          "type": "address[]"
        }
      ],
      "name": "getAmountsIn",
      "outputs": [
        {
          "internalType": "uint256[]",
          "name": "amounts",
          "type": "uint256[]"
        }
      ],
      "stateMutability": "view",
      "type": "function"
    },
    {
      "inputs": [
        {
          "internalType": "uint256",
          "name": "amountIn",
          "type": "uint256"
        },
        {
          "internalType": "address[]",
          "name": "path",
          "type": "address[]"
        }
      ],
      "name": "getAmountsOut",
      "outputs": [
        {
          "internalType": "uint256[]",
          "name": "amounts",
          "type": "uint256[]"
        }
      ],
      "stateMutability": "view",
      "type": "function"
    },
    {
      "inputs": [
        {
          "internalType": "uint256",
          "name": "amountOut",
          "type": "uint256"
        },
        {
          "internalType": "address[]",
          "name": "path",
          "type": "address[]"
        },
        {
          "internalType": "address",
          "name": "to",
          "type": "address"
        },
        {
          "internalType": "address",
          "name": "refundTo",
          "type": "address"
        }
      ],
      "name": "swapETHtoExactTokens",
      "outputs": [
        {
          "internalType": "uint256",
          "name": "amtOut",
          "type": "uint256"
        }
      ],
      "stateMutability": "payable",
      "type": "function"
    },
    {
      "inputs": [
        {
          "internalType": "uint256",
          "name": "amountOutMin",
          "type": "uint256"
        },
        {
          "internalType": "address[]",
          "name": "path",
          "type": "address[]"
        },
        {
          "internalType": "address",
          "name": "to",
          "type": "address"
        }
      ],
      "name": "swapExactETHForTokens",
      "outputs": [
        {
          "internalType": "uint256",
          "name": "amtOut",
          "type": "uint256"
        }
      ],
      "stateMutability": "payable",
      "type": "function"
    },
    {
      "inputs": [
        {
          "internalType": "uint256",
          "name": "amountIn",
          "type": "uint256"
        },
        {
          "internalType": "uint256",
          "name": "amountOutMin",
          "type": "uint256"
        },
        {
          "internalType": "address[]",
          "name": "path",
          "type": "address[]"
        },
        {
          "internalType": "address",
          "name": "to",
          "type": "address"
        }
      ],
      "name": "swapExactTokensForETH",
      "outputs": [
        {
          "internalType": "uint256",
          "name": "amtOut",
          "type": "uint256"
        }
      ],
      "stateMutability": "nonpayable",
      "type": "function"
    },
    {
      "inputs": [
        {
          "internalType": "uint256",
          "name": "amountIn",
          "type": "uint256"
        },
        {
          "internalType": "uint256",
          "name": "amountOutMin",
          "type": "uint256"
        },
        {
          "internalType": "address[]",
          "name": "path",
          "type": "address[]"
        },
        {
          "internalType": "address",
          "name": "to",
          "type": "address"
        }
      ],
      "name": "swapExactTokensForTokens",
      "outputs": [
        {
          "internalType": "uint256",
          "name": "amountOut",
          "type": "uint256"
        }
      ],
      "stateMutability": "nonpayable",
      "type": "function"
    },
    {
      "inputs": [
        {
          "internalType": "uint256",
          "name": "amountOut",
          "type": "uint256"
        },
        {
          "internalType": "uint256",
          "name": "amountInMax",
          "type": "uint256"
        },
        {
          "internalType": "address[]",
          "name": "path",
          "type": "address[]"
        },
        {
          "internalType": "address",
          "name": "to",
          "type": "address"
        },
        {
          "internalType": "address",
          "name": "refundTo",
          "type": "address"
        }
      ],
      "name": "swapTokensForExactETH",
      "outputs": [
        {
          "internalType": "uint256",
          "name": "amtOut",
          "type": "uint256"
        }
      ],
      "stateMutability": "payable",
      "type": "function"
    },
    {
      "inputs": [
        {
          "internalType": "uint256",
          "name": "amountOut",
          "type": "uint256"
        },
        {
          "internalType": "uint256",
          "name": "amountInMax",
          "type": "uint256"
        },
        {
          "internalType": "address[]",
          "name": "path",
          "type": "address[]"
        },
        {
          "internalType": "address",
          "name": "to",
          "type": "address"
        },
        {
          "internalType": "address",
          "name": "refundTo",
          "type": "address"
        }
      ],
      "name": "swapTokensForExactTokens",
      "outputs": [
        {
          "internalType": "uint256",
          "name": "amtOut",
          "type": "uint256"
        }
      ],
      "stateMutability": "nonpayable",
      "type": "function"
    },
    {
      "stateMutability": "payable",
      "type": "receive"
    }
  ],
  "bytecode": "0x608060405234801561001057600080fd5b5060405161182438038061182483398101604081905261002f91610058565b600080546001600160a01b0319166001600160a01b039390931692909217909155600155610092565b6000806040838503121561006b57600080fd5b82516001600160a01b038116811461008257600080fd5b6020939093015192949293505050565b611783806100a16000396000f3fe60806040526004361061008a5760003560e01c8063472b43f311610059578063472b43f31461011c5780635ec9ef611461013c5780636561fd4f1461015c5780639d888e861461016f578063d06ca61f1461018557600080fd5b806312c6442f146100965780631f00ca74146100bc578063363db5c6146100e95780633d6e17d41461010957600080fd5b3661009157005b600080fd5b6100a96100a4366004611106565b6101a5565b6040519081526020015b60405180910390f35b3480156100c857600080fd5b506100dc6100d73660046111cf565b6102a0565b6040516100b39190611278565b3480156100f557600080fd5b506100a96101043660046112bc565b61031f565b6100a9610117366004611324565b6105fc565b34801561012857600080fd5b506100a96101373660046112bc565b610a11565b34801561014857600080fd5b506100a9610157366004611324565b610c43565b6100a961016a36600461139b565b610e97565b34801561017b57600080fd5b506100a960015481565b34801561019157600080fd5b506100dc6101a03660046111cf565b61105f565b6000805481906001600160a01b0316637ff36ab534888888886101ca61025842611414565b6040518763ffffffff1660e01b81526004016101ea959493929190611473565b60006040518083038185885af1158015610208573d6000803e3d6000fd5b50505050506040513d6000823e601f3d908101601f1916820160405261023191908101906114aa565b90508060018251610242919061153b565b8151811061025257610252611552565b602002602001015191507f4d5b890940c072753124125e8b6badf4f1901253f9b8496f832662116bf0df5885858460405161028f93929190611568565b60405180910390a150949350505050565b6000546040516307c0329d60e21b81526060916001600160a01b031690631f00ca74906102d3908690869060040161158c565b600060405180830381865afa1580156102f0573d6000803e3d6000fd5b505050506040513d6000823e601f3d908101601f1916820160405261031891908101906114aa565b9392505050565b60008383600081811061033457610334611552565b905060200201602081019061034991906115e3565b604051636eb1769f60e11b8152336004820152306024820152879082906000906001600160a01b0383169063dd62ed3e90604401602060405180830381865afa15801561039a573d6000803e3d6000fd5b505050506040513d601f19601f820116820180604052508101906103be91906115fe565b9050828110156103e95760405162461bcd60e51b81526004016103e090611617565b60405180910390fd5b6000888860008181106103fe576103fe611552565b905060200201602081019061041391906115e3565b9050806001600160a01b03166323b872dd33308e6040518463ffffffff1660e01b81526004016104459392919061164e565b6020604051808303816000875af1158015610464573d6000803e3d6000fd5b505050506040513d601f19601f820116820180604052508101906104889190611672565b6104a45760405162461bcd60e51b81526004016103e090611694565b60005460405163095ea7b360e01b81526001600160a01b039182166004820152602481018d90529082169063095ea7b3906044016020604051808303816000875af11580156104f7573d6000803e3d6000fd5b505050506040513d601f19601f8201168201806040525081019061051b9190611672565b6105375760405162461bcd60e51b81526004016103e0906116cb565b600080546001600160a01b03166318cbafe58d8d8d8d8d61055a61025842611414565b6040518763ffffffff1660e01b815260040161057b9695949392919061170f565b6000604051808303816000875af115801561059a573d6000803e3d6000fd5b505050506040513d6000823e601f3d908101601f191682016040526105c291908101906114aa565b905080600182516105d3919061153b565b815181106105e3576105e3611552565b6020026020010151965050505050505095945050505050565b60008484600081811061061157610611611552565b905060200201602081019061062691906115e3565b604051636eb1769f60e11b8152336004820152306024820152879082906000906001600160a01b0383169063dd62ed3e90604401602060405180830381865afa158015610677573d6000803e3d6000fd5b505050506040513d601f19601f8201168201806040525081019061069b91906115fe565b9050828110156106bd5760405162461bcd60e51b81526004016103e090611617565b888860008181106106d0576106d0611552565b90506020020160208101906106e591906115e3565b6001600160a01b03166323b872dd33308d6040518463ffffffff1660e01b81526004016107149392919061164e565b6020604051808303816000875af1158015610733573d6000803e3d6000fd5b505050506040513d601f19601f820116820180604052508101906107579190611672565b6107735760405162461bcd60e51b81526004016103e090611694565b8888600081811061078657610786611552565b905060200201602081019061079b91906115e3565b60005460405163095ea7b360e01b81526001600160a01b039182166004820152602481018d905291169063095ea7b3906044016020604051808303816000875af11580156107ed573d6000803e3d6000fd5b505050506040513d601f19601f820116820180604052508101906108119190611672565b61082d5760405162461bcd60e51b81526004016103e0906116cb565b600080546001600160a01b0316634a25d94a8d8d8d8d8d61085061025842611414565b6040518763ffffffff1660e01b81526004016108719695949392919061170f565b6000604051808303816000875af1158015610890573d6000803e3d6000fd5b505050506040513d6000823e601f3d908101601f191682016040526108b891908101906114aa565b905080600182516108c9919061153b565b815181106108d9576108d9611552565b60200260200101519550898960008181106108f6576108f6611552565b905060200201602081019061090b91906115e3565b6001600160a01b031663a9059cbb886109478460008151811061093057610930611552565b60200260200101518f61109290919063ffffffff16565b6040516001600160e01b031960e085901b1681526001600160a01b03909216600483015260248201526044016020604051808303816000875af1158015610992573d6000803e3d6000fd5b505050506040513d601f19601f820116820180604052508101906109b69190611672565b610a025760405162461bcd60e51b815260206004820152601a60248201527f4572726f723a20546f6b656e20726566756e64206661696c656400000000000060448201526064016103e0565b50505050509695505050505050565b600083836000818110610a2657610a26611552565b9050602002016020810190610a3b91906115e3565b604051636eb1769f60e11b8152336004820152306024820152879082906000906001600160a01b0383169063dd62ed3e90604401602060405180830381865afa158015610a8c573d6000803e3d6000fd5b505050506040513d601f19601f82011682018060405250810190610ab091906115fe565b905082811015610ad25760405162461bcd60e51b81526004016103e090611617565b600088886000818110610ae757610ae7611552565b9050602002016020810190610afc91906115e3565b9050806001600160a01b03166323b872dd33308e6040518463ffffffff1660e01b8152600401610b2e9392919061164e565b6020604051808303816000875af1158015610b4d573d6000803e3d6000fd5b505050506040513d601f19601f82011682018060405250810190610b719190611672565b610b8d5760405162461bcd60e51b81526004016103e090611694565b60005460405163095ea7b360e01b81526001600160a01b039182166004820152602481018d90529082169063095ea7b3906044016020604051808303816000875af1158015610be0573d6000803e3d6000fd5b505050506040513d601f19601f82011682018060405250810190610c049190611672565b610c205760405162461bcd60e51b81526004016103e0906116cb565b600080546001600160a01b03166338ed17398d8d8d8d8d61055a61025842611414565b600084846000818110610c5857610c58611552565b9050602002016020810190610c6d91906115e3565b604051636eb1769f60e11b8152336004820152306024820152879082906000906001600160a01b0383169063dd62ed3e90604401602060405180830381865afa158015610cbe573d6000803e3d6000fd5b505050506040513d601f19601f82011682018060405250810190610ce291906115fe565b905082811015610d045760405162461bcd60e51b81526004016103e090611617565b88886000818110610d1757610d17611552565b9050602002016020810190610d2c91906115e3565b6001600160a01b03166323b872dd33308d6040518463ffffffff1660e01b8152600401610d5b9392919061164e565b6020604051808303816000875af1158015610d7a573d6000803e3d6000fd5b505050506040513d601f19601f82011682018060405250810190610d9e9190611672565b610dba5760405162461bcd60e51b81526004016103e090611694565b88886000818110610dcd57610dcd611552565b9050602002016020810190610de291906115e3565b60005460405163095ea7b360e01b81526001600160a01b039182166004820152602481018d905291169063095ea7b3906044016020604051808303816000875af1158015610e34573d6000803e3d6000fd5b505050506040513d601f19601f82011682018060405250810190610e589190611672565b610e745760405162461bcd60e51b81526004016103e0906116cb565b600080546001600160a01b0316638803dbee8d8d8d8d8d61085061025842611414565b6000805481906001600160a01b031663fb3bdb413489898989610ebc61025842611414565b6040518763ffffffff1660e01b8152600401610edc959493929190611473565b60006040518083038185885af1158015610efa573d6000803e3d6000fd5b50505050506040513d6000823e601f3d908101601f19168201604052610f2391908101906114aa565b90508060018251610f34919061153b565b81518110610f4457610f44611552565b602002602001015191506000836001600160a01b0316610f8783600081518110610f7057610f70611552565b60200260200101513461109290919063ffffffff16565b604051600081818185875af1925050503d8060008114610fc3576040519150601f19603f3d011682016040523d82523d6000602084013e610fc8565b606091505b50509050806110195760405162461bcd60e51b815260206004820152601860248201527f4572726f723a2045544820726566756e64206661696c6564000000000000000060448201526064016103e0565b7f4d5b890940c072753124125e8b6badf4f1901253f9b8496f832662116bf0df5887878560405161104c93929190611568565b60405180910390a1505095945050505050565b60005460405163d06ca61f60e01b81526060916001600160a01b03169063d06ca61f906102d3908690869060040161158c565b6000610318828461153b565b60008083601f8401126110b057600080fd5b50813567ffffffffffffffff8111156110c857600080fd5b6020830191508360208260051b85010111156110e357600080fd5b9250929050565b80356001600160a01b038116811461110157600080fd5b919050565b6000806000806060858703121561111c57600080fd5b84359350602085013567ffffffffffffffff81111561113a57600080fd5b6111468782880161109e565b90945092506111599050604086016110ea565b905092959194509250565b634e487b7160e01b600052604160045260246000fd5b604051601f8201601f1916810167ffffffffffffffff811182821017156111a3576111a3611164565b604052919050565b600067ffffffffffffffff8211156111c5576111c5611164565b5060051b60200190565b600080604083850312156111e257600080fd5b8235915060208084013567ffffffffffffffff81111561120157600080fd5b8401601f8101861361121257600080fd5b8035611225611220826111ab565b61117a565b81815260059190911b8201830190838101908883111561124457600080fd5b928401925b828410156112695761125a846110ea565b82529284019290840190611249565b80955050505050509250929050565b6020808252825182820181905260009190848201906040850190845b818110156112b057835183529284019291840191600101611294565b50909695505050505050565b6000806000806000608086880312156112d457600080fd5b8535945060208601359350604086013567ffffffffffffffff8111156112f957600080fd5b6113058882890161109e565b90945092506113189050606087016110ea565b90509295509295909350565b60008060008060008060a0878903121561133d57600080fd5b8635955060208701359450604087013567ffffffffffffffff81111561136257600080fd5b61136e89828a0161109e565b90955093506113819050606088016110ea565b915061138f608088016110ea565b90509295509295509295565b6000806000806000608086880312156113b357600080fd5b85359450602086013567ffffffffffffffff8111156113d157600080fd5b6113dd8882890161109e565b90955093506113f09050604087016110ea565b9150611318606087016110ea565b634e487b7160e01b600052601160045260246000fd5b60008219821115611427576114276113fe565b500190565b8183526000602080850194508260005b85811015611468576001600160a01b03611455836110ea565b168752958201959082019060010161143c565b509495945050505050565b85815260806020820152600061148d60808301868861142c565b6001600160a01b0394909416604083015250606001529392505050565b600060208083850312156114bd57600080fd5b825167ffffffffffffffff8111156114d457600080fd5b8301601f810185136114e557600080fd5b80516114f3611220826111ab565b81815260059190911b8201830190838101908783111561151257600080fd5b928401925b8284101561153057835182529284019290840190611517565b979650505050505050565b60008282101561154d5761154d6113fe565b500390565b634e487b7160e01b600052603260045260246000fd5b60408152600061157c60408301858761142c565b9050826020830152949350505050565b6000604082018483526020604081850152818551808452606086019150828701935060005b818110156115d65784516001600160a01b0316835293830193918301916001016115b1565b5090979650505050505050565b6000602082840312156115f557600080fd5b610318826110ea565b60006020828403121561161057600080fd5b5051919050565b6020808252601b908201527f4572726f723a204e6f7420656e6f75676820616c6c6f77616e63650000000000604082015260600190565b6001600160a01b039384168152919092166020820152604081019190915260600190565b60006020828403121561168457600080fd5b8151801515811461031857600080fd5b6020808252601e908201527f4572726f723a204661696c656420746f2073656c66207472616e736665720000604082015260600190565b60208082526024908201527f4572726f723a204661696c656420746f20617070726f766520556e695632526f6040820152633aba32b960e11b606082015260800190565b86815285602082015260a06040820152600061172f60a08301868861142c565b6001600160a01b03949094166060830152506080015294935050505056fea2646970667358221220f27a8c2efd2bf09ea700b71f4d771aa27349240f7e0f1d792d641e8557d3ef1d64736f6c634300080c0033",
  "linkReferences": {},
  "deployedLinkReferences": {}
}