{
  "_format": "hh-sol-artifact-1",
  "contractName": "CommunityFeeCollector",
  "sourceName": "contracts/datax/core/FeeCollector.sol",
  "abi": [
    {
      "inputs": [
        {
          "internalType": "address payable",
          "name": "newCollector",
          "type": "address"
        },
        {
          "internalType": "address",
          "name": "owner",
          "type": "address"
        }
      ],
      "stateMutability": "nonpayable",
      "type": "constructor"
    },
    {
      "anonymous": false,
      "inputs": [
        {
          "indexed": true,
          "internalType": "address",
          "name": "previousOwner",
          "type": "address"
        },
        {
          "indexed": true,
          "internalType": "address",
          "name": "newOwner",
          "type": "address"
        }
      ],
      "name": "OwnershipTransferred",
      "type": "event"
    },
    {
      "stateMutability": "payable",
      "type": "fallback"
    },
    {
      "inputs": [
        {
          "internalType": "address payable",
          "name": "newCollector",
          "type": "address"
        }
      ],
      "name": "changeCollector",
      "outputs": [],
      "stateMutability": "nonpayable",
      "type": "function"
    },
    {
      "inputs": [],
      "name": "owner",
      "outputs": [
        {
          "internalType": "address",
          "name": "",
          "type": "address"
        }
      ],
      "stateMutability": "view",
      "type": "function"
    },
    {
      "inputs": [],
      "name": "renounceOwnership",
      "outputs": [],
      "stateMutability": "nonpayable",
      "type": "function"
    },
    {
      "inputs": [
        {
          "internalType": "address",
          "name": "newOwner",
          "type": "address"
        }
      ],
      "name": "transferOwnership",
      "outputs": [],
      "stateMutability": "nonpayable",
      "type": "function"
    },
    {
      "inputs": [],
      "name": "withdrawETH",
      "outputs": [],
      "stateMutability": "payable",
      "type": "function"
    },
    {
      "inputs": [
        {
          "internalType": "address",
          "name": "tokenAddress",
          "type": "address"
        }
      ],
      "name": "withdrawToken",
      "outputs": [],
      "stateMutability": "nonpayable",
      "type": "function"
    },
    {
      "stateMutability": "payable",
      "type": "receive"
    }
  ],
  "bytecode": "0x608060405234801561001057600080fd5b5060405161084138038061084183398101604081905261002f91610238565b61003833610108565b6001600160a01b0382161580159061005857506001600160a01b03811615155b6100dd5760405162461bcd60e51b8152602060048201526044602482018190527f436f6d6d756e697479466565436f6c6c6563746f723a20636f6c6c6563746f72908201527f2061646472657373206f72206f776e657220697320696e76616c6964206164646064820152637265737360e01b608482015260a4015b60405180910390fd5b600180546001600160a01b0319166001600160a01b03841617905561010181610158565b5050610272565b600080546001600160a01b038381166001600160a01b0319831681178455604051919092169283917f8be0079c531659141344cd1fd0a4f28419497f9722a3daafe3b4186f6b6457e09190a35050565b6000546001600160a01b031633146101b25760405162461bcd60e51b815260206004820181905260248201527f4f776e61626c653a2063616c6c6572206973206e6f7420746865206f776e657260448201526064016100d4565b6001600160a01b0381166102175760405162461bcd60e51b815260206004820152602660248201527f4f776e61626c653a206e6577206f776e657220697320746865207a65726f206160448201526564647265737360d01b60648201526084016100d4565b61022081610108565b50565b6001600160a01b038116811461022057600080fd5b6000806040838503121561024b57600080fd5b825161025681610223565b602084015190925061026781610223565b809150509250929050565b6105c0806102816000396000f3fe6080604052600436106100565760003560e01c8063715018a61461005f5780637781127e1461007457806389476069146100945780638da5cb5b146100b4578063e086e5ec146100e0578063f2fde38b146100e857005b3661005d57005b005b34801561006b57600080fd5b5061005d610108565b34801561008057600080fd5b5061005d61008f3660046104f6565b610147565b3480156100a057600080fd5b5061005d6100af3660046104f6565b610202565b3480156100c057600080fd5b50600054604080516001600160a01b039092168252519081900360200190f35b61005d6103c4565b3480156100f457600080fd5b5061005d6101033660046104f6565b6103fd565b6000546001600160a01b0316331461013b5760405162461bcd60e51b81526004016101329061051a565b60405180910390fd5b6101456000610491565b565b6000546001600160a01b031633146101715760405162461bcd60e51b81526004016101329061051a565b6001600160a01b0381166101e05760405162461bcd60e51b815260206004820152603060248201527f436f6d6d756e697479466565436f6c6c6563746f723a20696e76616c6964206360448201526f6f6c6c6563746f72206164647265737360801b6064820152608401610132565b600180546001600160a01b0319166001600160a01b0392909216919091179055565b6001600160a01b0381166102765760405162461bcd60e51b815260206004820152603560248201527f436f6d6d756e697479466565436f6c6c6563746f723a20696e76616c696420746044820152746f6b656e20636f6e7472616374206164647265737360581b6064820152608401610132565b6001546040516370a0823160e01b81523060048201526001600160a01b038381169263a9059cbb9291169083906370a0823190602401602060405180830381865afa1580156102c9573d6000803e3d6000fd5b505050506040513d601f19601f820116820180604052508101906102ed919061054f565b6040516001600160e01b031960e085901b1681526001600160a01b03909216600483015260248201526044016020604051808303816000875af1158015610338573d6000803e3d6000fd5b505050506040513d601f19601f8201168201806040525081019061035c9190610568565b6103c15760405162461bcd60e51b815260206004820152603060248201527f436f6d6d756e697479466565436f6c6c6563746f723a206661696c656420746f60448201526f20776974686472617720746f6b656e7360801b6064820152608401610132565b50565b6001546040516001600160a01b03909116904780156108fc02916000818181858888f193505050501580156103c1573d6000803e3d6000fd5b6000546001600160a01b031633146104275760405162461bcd60e51b81526004016101329061051a565b6001600160a01b03811661048c5760405162461bcd60e51b815260206004820152602660248201527f4f776e61626c653a206e6577206f776e657220697320746865207a65726f206160448201526564647265737360d01b6064820152608401610132565b6103c1815b600080546001600160a01b038381166001600160a01b0319831681178455604051919092169283917f8be0079c531659141344cd1fd0a4f28419497f9722a3daafe3b4186f6b6457e09190a35050565b6001600160a01b03811681146103c157600080fd5b60006020828403121561050857600080fd5b8135610513816104e1565b9392505050565b6020808252818101527f4f776e61626c653a2063616c6c6572206973206e6f7420746865206f776e6572604082015260600190565b60006020828403121561056157600080fd5b5051919050565b60006020828403121561057a57600080fd5b8151801515811461051357600080fdfea2646970667358221220e4943509b62581f89afe929e577aae3c90d8c466edc501aefef1cd6c12f3a45c64736f6c634300080c0033",
  "linkReferences": {},
  "deployedLinkReferences": {}
}