{
  "_format": "hh-sol-artifact-1",
  "contractName": "Storage",
  "sourceName": "contracts/datax/Storage.sol",
  "abi": [
    {
      "inputs": [],
      "stateMutability": "nonpayable",
      "type": "constructor"
    },
    {
      "inputs": [],
      "name": "acceptPendingAdmin",
      "outputs": [],
      "stateMutability": "nonpayable",
      "type": "function"
    },
    {
      "inputs": [
        {
          "internalType": "bytes32",
          "name": "",
          "type": "bytes32"
        }
      ],
      "name": "addressStorage",
      "outputs": [
        {
          "internalType": "address",
          "name": "",
          "type": "address"
        }
      ],
      "stateMutability": "view",
      "type": "function"
    },
    {
      "inputs": [],
      "name": "admin",
      "outputs": [
        {
          "internalType": "address",
          "name": "",
          "type": "address"
        }
      ],
      "stateMutability": "view",
      "type": "function"
    },
    {
      "inputs": [
        {
          "internalType": "bytes32",
          "name": "",
          "type": "bytes32"
        }
      ],
      "name": "currentVersion",
      "outputs": [
        {
          "internalType": "uint8",
          "name": "",
          "type": "uint8"
        }
      ],
      "stateMutability": "view",
      "type": "function"
    },
    {
      "inputs": [
        {
          "internalType": "bytes32",
          "name": "",
          "type": "bytes32"
        }
      ],
      "name": "fees",
      "outputs": [
        {
          "internalType": "uint256",
          "name": "",
          "type": "uint256"
        }
      ],
      "stateMutability": "view",
      "type": "function"
    },
    {
      "inputs": [
        {
          "internalType": "string",
          "name": "name",
          "type": "string"
        },
        {
          "internalType": "uint8",
          "name": "version",
          "type": "uint8"
        }
      ],
      "name": "getContractAdd",
      "outputs": [
        {
          "internalType": "address",
          "name": "",
          "type": "address"
        }
      ],
      "stateMutability": "view",
      "type": "function"
    },
    {
      "inputs": [
        {
          "internalType": "string",
          "name": "name",
          "type": "string"
        }
      ],
      "name": "getCurrentVersion",
      "outputs": [
        {
          "internalType": "uint8",
          "name": "",
          "type": "uint8"
        }
      ],
      "stateMutability": "view",
      "type": "function"
    },
    {
      "inputs": [
        {
          "internalType": "string",
          "name": "key",
          "type": "string"
        }
      ],
      "name": "getFees",
      "outputs": [
        {
          "internalType": "uint256",
          "name": "",
          "type": "uint256"
        }
      ],
      "stateMutability": "view",
      "type": "function"
    },
    {
      "inputs": [],
      "name": "pendingAdmin",
      "outputs": [
        {
          "internalType": "address",
          "name": "",
          "type": "address"
        }
      ],
      "stateMutability": "view",
      "type": "function"
    },
    {
      "inputs": [
        {
          "internalType": "address",
          "name": "newAdmin",
          "type": "address"
        }
      ],
      "name": "setPendingAdmin",
      "outputs": [],
      "stateMutability": "nonpayable",
      "type": "function"
    },
    {
      "inputs": [
        {
          "internalType": "string",
          "name": "name",
          "type": "string"
        },
        {
          "internalType": "uint8",
          "name": "version",
          "type": "uint8"
        },
        {
          "internalType": "address",
          "name": "value",
          "type": "address"
        }
      ],
      "name": "updateContractVersion",
      "outputs": [],
      "stateMutability": "nonpayable",
      "type": "function"
    },
    {
      "inputs": [
        {
          "internalType": "string",
          "name": "key",
          "type": "string"
        },
        {
          "internalType": "uint256",
          "name": "value",
          "type": "uint256"
        }
      ],
      "name": "updateFees",
      "outputs": [],
      "stateMutability": "nonpayable",
      "type": "function"
    }
  ],
  "bytecode": "0x608060405234801561001057600080fd5b50600080546001600160a01b031916331790556108c9806100326000396000f3fe608060405234801561001057600080fd5b50600436106100b45760003560e01c8063879c30c611610071578063879c30c614610177578063c233abe71461018a578063cdb5661f1461019d578063eb90b2bc146101cb578063f3dd6960146101de578063f851a440146101f157600080fd5b806304f49a3a146100b957806326782247146100ff5780633b426d3f146101125780634dd18bf51461014757806350c36b561461015c578063709920c11461016f575b600080fd5b6100e26100c7366004610644565b6002602052600090815260409020546001600160a01b031681565b6040516001600160a01b0390911681526020015b60405180910390f35b6001546100e2906001600160a01b031681565b610135610120366004610644565b60036020526000908152604090205460ff1681565b60405160ff90911681526020016100f6565b61015a610155366004610679565b610204565b005b61015a61016a3660046106f5565b610259565b61015a6103bc565b61013561018536600461075a565b610453565b6100e261019836600461079c565b6104af565b6101bd6101ab366004610644565b60046020526000908152604090205481565b6040519081526020016100f6565b6101bd6101d936600461075a565b61054c565b61015a6101ec3660046107f0565b6105a5565b6000546100e2906001600160a01b031681565b6000546001600160a01b031633146102375760405162461bcd60e51b815260040161022e9061083c565b60405180910390fd5b600180546001600160a01b0319166001600160a01b0392909216919091179055565b6000546001600160a01b031633146102835760405162461bcd60e51b815260040161022e9061083c565b60006102c485858080601f01602080910402602001604051908101604052809392919081815260200183838082843760009201919091525061062792505050565b6000818152600360205260409020549091506102e49060ff166001610860565b60ff168360ff16146103385760405162461bcd60e51b815260206004820152601760248201527f56657273696f6e206e6f7420696e6372656d656e74616c000000000000000000604482015260640161022e565b6000818460405160200161035992919091825260ff16602082015260400190565b60408051808303601f19018152918152815160209283012060009081526002835281812080546001600160a01b0319166001600160a01b03979097169690961790955592845260039052509020805460ff191660ff929092169190911790555050565b6001546001600160a01b0316331480156103e057506001546001600160a01b031615155b61042c5760405162461bcd60e51b815260206004820181905260248201527f43616c6c6572206d757374206265207468652070656e64696e672061646d696e604482015260640161022e565b60018054600080546001600160a01b03199081166001600160a01b03841617909155169055565b60008061049584848080601f01602080910402602001604051908101604052809392919081815260200183838082843760009201919091525061062792505050565b60009081526003602052604090205460ff16949350505050565b6000806104f185858080601f01602080910402602001604051908101604052809392919081815260200183838082843760009201919091525061062792505050565b90506000818460405160200161051492919091825260ff16602082015260400190565b60408051808303601f190181529181528151602092830120600090815260029092529020546001600160a01b03169695505050505050565b60008061058e84848080601f01602080910402602001604051908101604052809392919081815260200183838082843760009201919091525061062792505050565b600090815260046020526040902054949350505050565b6000546001600160a01b031633146105cf5760405162461bcd60e51b815260040161022e9061083c565b600061061084848080601f01602080910402602001604051908101604052809392919081815260200183838082843760009201919091525061062792505050565b600090815260046020526040902091909155505050565b8051600090829061063b5750600092915050565b50506020015190565b60006020828403121561065657600080fd5b5035919050565b80356001600160a01b038116811461067457600080fd5b919050565b60006020828403121561068b57600080fd5b6106948261065d565b9392505050565b60008083601f8401126106ad57600080fd5b50813567ffffffffffffffff8111156106c557600080fd5b6020830191508360208285010111156106dd57600080fd5b9250929050565b803560ff8116811461067457600080fd5b6000806000806060858703121561070b57600080fd5b843567ffffffffffffffff81111561072257600080fd5b61072e8782880161069b565b90955093506107419050602086016106e4565b915061074f6040860161065d565b905092959194509250565b6000806020838503121561076d57600080fd5b823567ffffffffffffffff81111561078457600080fd5b6107908582860161069b565b90969095509350505050565b6000806000604084860312156107b157600080fd5b833567ffffffffffffffff8111156107c857600080fd5b6107d48682870161069b565b90945092506107e79050602085016106e4565b90509250925092565b60008060006040848603121561080557600080fd5b833567ffffffffffffffff81111561081c57600080fd5b6108288682870161069b565b909790965060209590950135949350505050565b6020808252600a908201526961646d696e206f6e6c7960b01b604082015260600190565b600060ff821660ff84168060ff0382111561088b57634e487b7160e01b600052601160045260246000fd5b01939250505056fea2646970667358221220619a5c4faaf3f8bc28fb5903fab4edbd1172024dcebc9c84d5012e97b88bde9364736f6c634300080c0033",
  "linkReferences": {},
  "deployedLinkReferences": {}
}