{
  "_format": "hh-sol-artifact-1",
  "contractName": "Fees",
  "sourceName": "contracts/datax/Fees.sol",
  "abi": [
    {
      "inputs": [
        {
          "internalType": "address",
          "name": "_storage",
          "type": "address"
        }
      ],
      "stateMutability": "nonpayable",
      "type": "constructor"
    },
    {
      "inputs": [
        {
          "internalType": "uint256",
          "name": "baseTokenAmount",
          "type": "uint256"
        },
        {
          "internalType": "string",
          "name": "feeType",
          "type": "string"
        }
      ],
      "name": "calcDataXFees",
      "outputs": [
        {
          "internalType": "uint256",
          "name": "",
          "type": "uint256"
        }
      ],
      "stateMutability": "view",
      "type": "function"
    },
    {
      "inputs": [
        {
          "internalType": "uint256",
          "name": "baseTokenAmount",
          "type": "uint256"
        },
        {
          "internalType": "uint256",
          "name": "refFees",
          "type": "uint256"
        }
      ],
      "name": "calcRefFees",
      "outputs": [
        {
          "internalType": "uint256",
          "name": "",
          "type": "uint256"
        }
      ],
      "stateMutability": "pure",
      "type": "function"
    }
  ],
  "bytecode": "0x608060405234801561001057600080fd5b5060405161034338038061034383398101604081905261002f91610054565b600080546001600160a01b0319166001600160a01b0392909216919091179055610084565b60006020828403121561006657600080fd5b81516001600160a01b038116811461007d57600080fd5b9392505050565b6102b0806100936000396000f3fe608060405234801561001057600080fd5b50600436106100365760003560e01c80639a2b06ec1461003b578063c915d01514610060575b600080fd5b61004e610049366004610145565b610073565b60405190815260200160405180910390f35b61004e61006e366004610167565b610098565b6000610091606461008b6402540be40081878761012d565b90610139565b9392505050565b60008054604051633ae42caf60e21b815282916001600160a01b03169063eb90b2bc906100cb90879087906004016101e3565b602060405180830381865afa1580156100e8573d6000803e3d6000fd5b505050506040513d601f19601f8201168201806040525081019061010c9190610212565b9050610124606461008b6402540be40081898661012d565b95945050505050565b6000610091828461022b565b60006100918284610258565b6000806040838503121561015857600080fd5b50508035926020909101359150565b60008060006040848603121561017c57600080fd5b83359250602084013567ffffffffffffffff8082111561019b57600080fd5b818601915086601f8301126101af57600080fd5b8135818111156101be57600080fd5b8760208285010111156101d057600080fd5b6020830194508093505050509250925092565b60208152816020820152818360408301376000818301604090810191909152601f909201601f19160101919050565b60006020828403121561022457600080fd5b5051919050565b600081600019048311821515161561025357634e487b7160e01b600052601160045260246000fd5b500290565b60008261027557634e487b7160e01b600052601260045260246000fd5b50049056fea26469706673582212206279f5fe2f5812e47dd08327982ce958d788bc761cc9183dff12afcddc1f3a7464736f6c634300080c0033",
  "linkReferences": {},
  "deployedLinkReferences": {}
}